{
  "_format": "hh-sol-artifact-1",
  "contractName": "FakeNFTMarketplace",
  "sourceName": "contracts/FakeNFTMarketplace.sol",
  "abi": [
    {
      "inputs": [
        {
          "internalType": "uint256",
          "name": "_tokenId",
          "type": "uint256"
        }
      ],
      "name": "available",
      "outputs": [
        {
          "internalType": "bool",
          "name": "",
          "type": "bool"
        }
      ],
      "stateMutability": "view",
      "type": "function"
    },
    {
      "inputs": [],
      "name": "getPrice",
      "outputs": [
        {
          "internalType": "uint256",
          "name": "",
          "type": "uint256"
        }
      ],
      "stateMutability": "view",
      "type": "function"
    },
    {
      "inputs": [
        {
          "internalType": "uint256",
          "name": "_tokenId",
          "type": "uint256"
        }
      ],
      "name": "purchase",
      "outputs": [],
      "stateMutability": "payable",
      "type": "function"
    },
    {
      "inputs": [
        {
          "internalType": "uint256",
          "name": "",
          "type": "uint256"
        }
      ],
      "name": "tokens",
      "outputs": [
        {
          "internalType": "address",
          "name": "",
          "type": "address"
        }
      ],
      "stateMutability": "view",
      "type": "function"
    }
  ],
  "bytecode": "0x608060405267016345785d8a000060015534801561001c57600080fd5b506104178061002c6000396000f3fe60806040526004361061003f5760003560e01c80634f64b2be1461004457806396e494e81461008157806398d5fdca146100be578063efef39a1146100e9575b600080fd5b34801561005057600080fd5b5061006b6004803603810190610066919061026a565b610105565b6040516100789190610300565b60405180910390f35b34801561008d57600080fd5b506100a860048036038101906100a3919061026a565b610138565b6040516100b5919061031b565b60405180910390f35b3480156100ca57600080fd5b506100d36101b3565b6040516100e09190610356565b60405180910390f35b61010360048036038101906100fe919061026a565b6101bd565b005b60006020528060005260406000206000915054906101000a900473ffffffffffffffffffffffffffffffffffffffff1681565b60008073ffffffffffffffffffffffffffffffffffffffff1660008084815260200190815260200160002060009054906101000a900473ffffffffffffffffffffffffffffffffffffffff1673ffffffffffffffffffffffffffffffffffffffff1614156101a957600190506101ae565b600090505b919050565b6000600154905090565b6001543414610201576040517f08c379a00000000000000000000000000000000000000000000000000000000081526004016101f890610336565b60405180910390fd5b3360008083815260200190815260200160002060006101000a81548173ffffffffffffffffffffffffffffffffffffffff021916908373ffffffffffffffffffffffffffffffffffffffff16021790555050565b600081359050610264816103ca565b92915050565b60006020828403121561027c57600080fd5b600061028a84828501610255565b91505092915050565b61029c81610382565b82525050565b6102ab81610394565b82525050565b60006102be601883610371565b91507f54686973204e465420636f73747320302e3120657468657200000000000000006000830152602082019050919050565b6102fa816103c0565b82525050565b60006020820190506103156000830184610293565b92915050565b600060208201905061033060008301846102a2565b92915050565b6000602082019050818103600083015261034f816102b1565b9050919050565b600060208201905061036b60008301846102f1565b92915050565b600082825260208201905092915050565b600061038d826103a0565b9050919050565b60008115159050919050565b600073ffffffffffffffffffffffffffffffffffffffff82169050919050565b6000819050919050565b6103d3816103c0565b81146103de57600080fd5b5056fea2646970667358221220c8e4acfdb3990631f37a09c7ac54ac1c4a6b2235517f243e68cb9c7972ddf19b64736f6c63430008000033",
  "linkReferences": {},
  "deployedLinkReferences": {}
}